:10073A00FFFFFFFFFFFF0001020304050607080988
:10074A000A0B0C0D0E0F010300030405080803052C
:10075A00070A0B0C0D0E000102030405060708091F
:10076A000A0B0C0D0E0F1011121314151617181967
:10077A001A1B1C1D1E1F202121222223232424256B
:10078A002A2B2C2D2E2F3031323334353637383947
:10079A003A3B3C3D3E3F00000000000000000000E4
:0607AA0000000000000049
:1009A000C291C290120AADD291D290900760E493A6
:1009B000FF783B74FFF2087407F20874A0F2E408B1
:0C09C000F27BFF7A07793A1205B680DF5F
:0D05B6007837EFF208EBF208EAF208E9F2FC
:1005C3007BFE7A0079167F5212063AEF7068C2906A
:1005D3007FFE7BFE7A00791812035DEF7058C2919B
:1005E3007FFE7BFE7A0079181203FCEF70487837A0
:1005F300E2FD784474FEF2087400F2087418F2788D
:1006030038E2FB08E2FA08E2F97F601207B0EF7004
:1006130025783EE27837600FE2FF783BE2FB08E2A1
:10062300FA08E2F902049BE2FF783BE2FB08E2FAF4
:0606330008E2F912052C9B
:01063900229E
:0D081D007800EFF208EBF208EAF208E9F2C9
:10082A00780A7405F27800E2FD7804E2F908E2FA3F
:10083A0008E27844C9F208EAF208E9F27801E2FB30
:10084A0008E2FA08E2F97F601207B0780AE214F2C5
:10085A00EF6006E2D3940050CC780A7405F278006F
:10086A00E2FF7807E2FB08E2FA08E2F912052C78BF
:0D087A000AE214F2EF6006E2D3940050E1B0
:01088700224E
:0D088800780BEFF208EBF208EAF208E9F253
:1008950078157405F2780BE2FD780FE2F908E2FAB3
:1008A50008E27844C9F208EAF208E9F2780CE2FBBA
:1008B50008E2FA08E2F97F601207B07815E214F24F
:1008C500EF6006E2D3940050CC78157405F2780BEE
:1008D500E2FF7812E2FB08E2FA08E2F912049B78DB
:0D08E50015E214F2EF6006E2D3940050E13A
:0108F20022E3
:100A8300E4FDFCC3ED9FEC9E500A0000000DBD0089
:040A9300010C80EFE3
:010A9700223C
:060A1700D2A37F0A7E005D
:100A1D00D3EF9400EE9400400F7DC77C01DCFEDD2A
:080A2D00FAEF1F70EB1E80E8D8
:010A3500229E
:100A5500E4FFFEEF25E0FFC2A630A4034401FFD268
:060A6500A60EEEB408ED40
:010A6B002268
:1009F700E4FEEF30E704D2A58002C2A50000C2A63C
:0F0A07000000D2A60000EF25E0FF0EEEB408E3DA
:010A160022BD
:100A9800E4FEC2A7EF25E0547E4480FF1209F71256
:040AA8000A55D2A772
:010AAC002227
:1009420012095E7D1E7F2D12095EE4FD7F2C1209C5
:0C0952005E7D8D7F2A12095E7D3E7F2BAA
:10095E00C2A7EF25E0547EFF1209F7AF051209F783
:02096E00D2A70E
:010970002264
:050A6C00F27D087F0887
:020A7100AC07D0
:100A7300E4FE120A98AE07AF04EDF45EFD02095ED0
:0E0A3600120A71E4FD7F0112095E7D807F0AC5
:020A4400AC07FD
:0F0A4600E4FE120A98AE07AF04ED4EFD02095E02
:0606BB007BFE7A00794489
:0D06C1007857EBF208EAF208E9F208EDF2D2
:1006CE007D047F05120A36E4FC785AE2FFECC39FE4
:1006DE00501B7857E2FB08E2FA08E2F98C82758328
:1006EE00001202DDFD7F0912095E0C80DC7D037FA6
:1006FE000112095E7CFF7F05120A981CEC6004EF64
:10070E0030E2F37F22120A98785BE2FB08E2FA08E5
:10071E00E2F9EF12030A7F21120A98785BE2FB08D6
:0C072E00E2FA08E2F9900001EF02031C5F
:10000300785FF20874FEF2087400F2087444F20890
:1000130074FEF2087400F2087442F27A0079447BA9
:03002300FE7F0C51
:0E002600785CEBF208EAF208E9F2785BEFF2A0
:10003400786674FEF2E408F208F2EF24F4600F2408
:10004400FE701478677412F2087410F280097867ED
:100054007477F2087430F27867E24480FD7F02120C
:10006400095E7D807F04120A36E4786AF208F27829
:100074005FE2FF786AE2FC08E2FDC39FEC94005063
:1000840024785CE2FB08E2FA08E2F98D828C8312A0
:1000940002DDFD7F0912095E786BE22401F218E2A9
:1000A4003400F280CA785BE2FD7F0112095EE2B49B
:1000B4000C077D807F0D120A44786A7407F2087475
:1000C400D0F27F04120A987869EFF2786BE224FF89
:1000D400F218E234FFF208E2700218E2600E786966
:1000E400E2FF20E00718E2FEEF5E60D67D807F0D20
:1000F400120A71786BE2700218E270030201D47F75
:1001040006120A98EF541B60030201CF7866F208C6
:10011400E2FF7869E25F30E005786674FFF2785BAD
:10012400E2640C60030201D47F0A120A987869EF32
:10013400F27F0C120A98EF5407FD6025E224FFFFBA
:10014400E434FFFEEF7803C333CE33CED8F97C001A
:100154002DFFEC3EF97863E2FB08E2FA08E2C9807D
:10016400147869E275F008A4FF7863E2FB08E2FA08
:1001740008E2F9E5F08FF012033E7869E2700204B8
:10018400F27869E2D3941240037412F2E4786AF2CA
:1001940008F27869E2FFC3786BE29F18E29400509A
:1001A4002F7F09120A987860E2FB08E2FA08E2F964
:1001B400786AE2FC08E2F5828C83EF12031C786B08
:1001C400E22401F218E23400F280C7786674FEF289
:1001D4007D807F0C120A44E4FD7F0112095E78667B
:0201E400E2FF38
:0101E60022F6
:0C063A00783FEFF208EBF208EAF208E962
:10064600120A6C7D077F0D12095E7D037F14120A64
:1006560044783FE27845F2785F7401F20874FEF25E
:10066600087400F2087445F20874FEF2087400F289
:10067600087443F27A007945120022EF7034784408
:10068600E26410700218E270297845E2FE7840E2D2
:10069600FB08E2FA08E2F9EE12030A7846E2FE786F
:1006A60040E2FB08E2FA08E2F9900001EE12031CB0
:0406B60080027FFE41
:0106BA00221D
:0A035D00783FEBF208EAF208E9F23B
:10036700E47843120A6CE4FD7F0D12095E7D807FFD
:100377000E120A7178467493F2087420F2785F744B
:1003870002F20874FEF2087400F2087446F2087468
:10039700FEF2087400F2087444F27BFE7A00794694
:1003A7007F0C1200267842EFF2703EFF74462FF85A
:1003B700E2FE783FE2FB08E2FA08E2F98F827583F2
:1003C70000EE12031C7843E2FE74462FF8E2FDEEBE
:1003D7006D7843F20FEFB404D374462FF8E2FF7839
:1003E70043E26F60041874FEF27D807F0E120A44A8
:0403F7007842E2FF67
:0103FB0022DF
:0A03FC00783FEBF208EAF208E9F29C
:1004060078447493F2087470F2E4784AF2FF783F05
:10041600E2FB08E2FA08E2F98F827583001202DD38
:10042600FE74462FF8EEF2784AE2FE8F827583005C
:100436001202DDFDEE6D784AF20FEFB404D0785B60
:1004460074FEF2087400F208744BF27BFE7A0079AF
:10045600447D071206C1120A6D785F7409F20874AA
:10046600FEF2087400F2087444F20874FEF208748E
:1004760000F2087442F27BFE7A0079447F0C120087
:1004860026EF700E7843E26418700218E27003FFDC
:0404960080027FFE63
:01049A00223F
:1007B0007849EFF208EDF2C001087C007DFED0011F
:1007C0007E007F061202B778517C007DFEC0007863
:1007D00044E2FB08E2FA08E2F9D0007E007F04124E
:1007E00002B7785F740CF20874FEF2087400F20825
:1007F0007449F20874FEF2087400F2087447F27B40
:10080000FE7A0079497F0E120026AD07ED70097F50
:0C08100008120A98EF20E3027DFEAF05FD
:01081C0022B9
:0A052C00783FEBF208EAF208E9F26A
:1005360078457430F208EFF2785B74FEF2087400C6
:10054600F2087447F27BFE7A0079457D021206C1F5
:10055600785F7404F20874FEF2087400F2087445B9
:10056600F20874FEF2087400F2087443F27BFE7A15
:100576000079457F0C1200267842EFF27028784405
:10058600E26490700218E2701D783FE2FB08E2FA1E
:1005960008E2F8AC02AD037BFE7A0079457E007F67
:0F05A600101202B78005784274FEF27842E2FF2D
:0105B5002223
:0A049B00783FEBF208EAF208E9F2FC
:1004A500784474A0F208EFF2785B74FEF2087400E9
:1004B500F2087446F27D021206BB7404120003EFC3
:1004C50070147843E26404700218E270097844E21B
:1004D500540F640A60027FFEEF704B78447C007D08
:1004E500FEC000783FE2FB08E2FA08E2F9D0007EA0
:1004F500007F101202B7785B74FEF2087400F208F0
:100505007454F27D101206BB7412120003EF7014BE
:100515007843E26404700218E270097844E2540FEB
:06052500640A60027FFE83
:01052B0022AD
:1008F30078257450F2E408F2785B74FEF208740011
:10090300F2087427F27BFE7A0079257D021206C174
:10091300785F7404F20874FEF2087400F208742518
:10092300F20874FEF2087400F2087423F27BFE7A74
:0E0933000079257F0C1200267822EFF27F005B
:010941002293
:1009CC00120A17C2A3120A19120A177D0F7F0112FD
:1009DC00095E7F0112095E120A197D3D7F11120911
:0B09EC00427D407F1512095E7F002253
:10097100EF64417024120A6D7D3D7F1112095E7D85
:10098100867F1712095E7D7F7F261209427FE87EEE
:0F09910003120A83120AC180037FFF227F002214
:100AC1007F14120A98EF540370077D037F14120AF2
:010AD10044E0
:010AD2002201
:070ADF007D037F14020A7180
:100AAD001209CC120ADF120A19120AC1120A197F91
:040ABD004102097178
:03000000020AD31E
:0C0AD300787FE4F6D8FD7581070209A0C9
:1001E700E709F608DFFA8046E709F208DFFA803EFA
:1001F70088828C83E709F0A3DFFA8032E309F608E7
:10020700DFFA8078E309F208DFFA807088828C834E
:10021700E309F0A3DFFA806489828A83E0A3F60802
:10022700DFFA805889828A83E0A3F208DFFA804CDC
:1002370080D280FA80C680D4806980F280338010B3
:1002470080A680EA809A80A880DA80E280CA80331C
:1002570089828A83ECFAE493A3C8C582C8CCC58394
:10026700CCF0A3C8C582C8CCC583CCDFE9DEE78064
:100277000D89828A83E493A3F608DFF9ECFAA9F0E3
:10028700EDFB2289828A83ECFAE0A3C8C582C8CC39
:10029700C583CCF0A3C8C582C8CCC583CCDFEADE52
:1002A700E880DB89828A83E493A3F208DFF980CCB4
:1002B70088F0EF60010E4E60C388F0ED2402B404AD
:1002C7000050B9F582EB2402B4040050AF23234554
:0602D70082239002377340
:1002DD00BB010CE58229F582E5833AF583E02250D6
:1002ED0006E92582F8E622BBFE06E92582F8E22220
:0D02FD00E58229F582E5833AF583E493223A
:10030A00BB010689828A83F0225002F722BBFE01D2
:02031A00F322CC
:10031C00F8BB010DE58229F582E5833AF583E8F017
:10032C00225006E92582C8F622BBFE05E92582C8C3
:02033C00F222AB
:10033E00BB010A89828A83F0E5F0A3F0225006F70A
:0F034E0009A7F01922BBFE06F3E5F009F3192207
:00000001FF
