:070181003933353436370035
:050188000308FF0181E6
:080179008F993099FDC2992213
:1000E800E4FFFE20980C0FBF00010EC3EF9DEE9CAD
:1000F80040F1C3EF9DEE9C500BE5991200D6C298D3
:08010800E4FEFF227E007F01EE
:0101100022CC
:10011100D3EF9400EE940040147D6E7C00ED1D70D1
:0D012100011CED4C70F7EF1F70E61E80E32F
:01012E0022AE
:10012F007598504389205389EF758DFA758BFA4373
:0B013F008780D28EC299C298D2AC22F9
:10014A00C2AC1200BD6010F5993099FDC2997401D4
:0A015A0029F9E43AFA80EBD2AC2256
:10008F007B007A00790BE4FFE5991200D6E4FEC2FB
:10009F0098C3EF6480948E50130F740129F9E43ADA
:0D00AF00FA2098E40EEED3948240F622D39E
:0100BC002221
:1001640012012FAB08AA09A90A12014A7FF47E01E1
:0501740012011180EEF4
:03000000020003F8
:0C000300787FE4F6D8FD75811A02004AEF
:1000BD00BB010689828A83E0225002E722BBFE0241
:0900CD00E32289828A83E4932274
:1000D600BB010689828A83F0225002F722BBFE0109
:0200E600F32203
:10000F00020164E493A3F8E493A34003F68001F2A2
:10001F0008DFF48029E493A3F85407240CC8C333F2
:10002F00C4540F4420C8834004F456800146F6DFC1
:10003F00E4800B0102040810204080900188E47EC8
:10004F00019360BCA3FF543F30E509541FFEE493B6
:10005F00A360010ECF54C025E060A840B8E493A37D
:10006F00FAE493A3F8E493A3C8C582C8CAC583CAA8
:10007F00F0A3C8C582C8CAC583CADFE9DEE780BE60
:01018D000071
:00000001FF
